{
  "address": "0xBabD672251197780CE4506302fcAb5923DF929C2",
  "abi": [
    {
      "inputs": [
        {
          "internalType": "address",
          "name": "priceFeedAdress",
          "type": "address"
        }
      ],
      "stateMutability": "nonpayable",
      "type": "constructor"
    },
    {
      "stateMutability": "payable",
      "type": "fallback"
    },
    {
      "inputs": [],
      "name": "MIN_USD",
      "outputs": [
        {
          "internalType": "uint256",
          "name": "",
          "type": "uint256"
        }
      ],
      "stateMutability": "view",
      "type": "function"
    },
    {
      "inputs": [
        {
          "internalType": "address",
          "name": "",
          "type": "address"
        }
      ],
      "name": "addressToAmount",
      "outputs": [
        {
          "internalType": "uint256",
          "name": "",
          "type": "uint256"
        }
      ],
      "stateMutability": "view",
      "type": "function"
    },
    {
      "inputs": [],
      "name": "fund",
      "outputs": [],
      "stateMutability": "payable",
      "type": "function"
    },
    {
      "inputs": [
        {
          "internalType": "uint256",
          "name": "",
          "type": "uint256"
        }
      ],
      "name": "funders",
      "outputs": [
        {
          "internalType": "address",
          "name": "",
          "type": "address"
        }
      ],
      "stateMutability": "view",
      "type": "function"
    },
    {
      "inputs": [
        {
          "internalType": "uint256",
          "name": "eth_amount",
          "type": "uint256"
        },
        {
          "internalType": "contract AggregatorV3Interface",
          "name": "priceFeed",
          "type": "address"
        }
      ],
      "name": "getConversionRate",
      "outputs": [
        {
          "internalType": "uint256",
          "name": "",
          "type": "uint256"
        }
      ],
      "stateMutability": "view",
      "type": "function"
    },
    {
      "inputs": [
        {
          "internalType": "uint256",
          "name": "index",
          "type": "uint256"
        }
      ],
      "name": "getFunder",
      "outputs": [
        {
          "internalType": "address",
          "name": "",
          "type": "address"
        }
      ],
      "stateMutability": "view",
      "type": "function"
    },
    {
      "inputs": [],
      "name": "getOwner",
      "outputs": [
        {
          "internalType": "address",
          "name": "",
          "type": "address"
        }
      ],
      "stateMutability": "view",
      "type": "function"
    },
    {
      "inputs": [
        {
          "internalType": "contract AggregatorV3Interface",
          "name": "priceFeed",
          "type": "address"
        }
      ],
      "name": "getPrice",
      "outputs": [
        {
          "internalType": "uint256",
          "name": "",
          "type": "uint256"
        }
      ],
      "stateMutability": "view",
      "type": "function"
    },
    {
      "inputs": [],
      "name": "i_owner",
      "outputs": [
        {
          "internalType": "address",
          "name": "",
          "type": "address"
        }
      ],
      "stateMutability": "view",
      "type": "function"
    },
    {
      "inputs": [],
      "name": "priceFeed",
      "outputs": [
        {
          "internalType": "contract AggregatorV3Interface",
          "name": "",
          "type": "address"
        }
      ],
      "stateMutability": "view",
      "type": "function"
    },
    {
      "inputs": [
        {
          "internalType": "address payable",
          "name": "recipient",
          "type": "address"
        },
        {
          "internalType": "uint256",
          "name": "amount",
          "type": "uint256"
        }
      ],
      "name": "sendEth",
      "outputs": [],
      "stateMutability": "nonpayable",
      "type": "function"
    },
    {
      "inputs": [],
      "name": "withdraw",
      "outputs": [],
      "stateMutability": "nonpayable",
      "type": "function"
    },
    {
      "stateMutability": "payable",
      "type": "receive"
    }
  ],
  "transactionHash": "0x910d104da10c099a66676f88602374b31a5a0e3b0f40674d9152fabcc49cc78d",
  "args": [
    "0x1b44F3514812d835EB1BDB0acB33d3fA3351Ee43"
  ],
  "numDeployments": 4,
  "solcInputHash": "ea9158d89f790baeec5eef9886fcb8fb",
  "bytecode": "0x60a06040523480156200001157600080fd5b50604051620014e4380380620014e4833981810160405281019062000037919062000120565b3373ffffffffffffffffffffffffffffffffffffffff1660808173ffffffffffffffffffffffffffffffffffffffff1660601b8152505080600260006101000a81548173ffffffffffffffffffffffffffffffffffffffff021916908373ffffffffffffffffffffffffffffffffffffffff1602179055505062000152565b600080fd5b600073ffffffffffffffffffffffffffffffffffffffff82169050919050565b6000620000e882620000bb565b9050919050565b620000fa81620000db565b81146200010657600080fd5b50565b6000815190506200011a81620000ef565b92915050565b600060208284031215620001395762000138620000b6565b5b6000620001498482850162000109565b91505092915050565b60805160601c61135e62000186600039600081816104340152818161071d015281816108610152610904015261135e6000f3fe6080604052600436106100ab5760003560e01c8063893d20e811610064578063893d20e8146101d457806398e70cf9146101ff578063b60d42881461023c578063d7b4750c14610246578063dba6335f14610283578063dc0d3dff146102ae576100ba565b8063213dbea2146100c45780633c7e7d28146100ef5780633ccfd60b1461012c57806341976e091461014357806349dcbc5e14610180578063741bef1a146101a9576100ba565b366100ba576100b86102eb565b005b6100c26102eb565b005b3480156100d057600080fd5b506100d9610415565b6040516100e69190610a25565b60405180910390f35b3480156100fb57600080fd5b5061011660048036038101906101119190610aa3565b61041a565b6040516101239190610a25565b60405180910390f35b34801561013857600080fd5b50610141610432565b005b34801561014f57600080fd5b5061016a60048036038101906101659190610b0e565b61067b565b6040516101779190610a25565b60405180910390f35b34801561018c57600080fd5b506101a760048036038101906101a29190610ba5565b61071b565b005b3480156101b557600080fd5b506101be610837565b6040516101cb9190610c44565b60405180910390f35b3480156101e057600080fd5b506101e961085d565b6040516101f69190610c6e565b60405180910390f35b34801561020b57600080fd5b5061022660048036038101906102219190610c89565b610885565b6040516102339190610a25565b60405180910390f35b6102446102eb565b005b34801561025257600080fd5b5061026d60048036038101906102689190610cc9565b6108bb565b60405161027a9190610c6e565b60405180910390f35b34801561028f57600080fd5b50610298610902565b6040516102a59190610c6e565b60405180910390f35b3480156102ba57600080fd5b506102d560048036038101906102d09190610cc9565b610926565b6040516102e29190610c6e565b60405180910390f35b600061031934600260009054906101000a900473ffffffffffffffffffffffffffffffffffffffff16610885565b101561035a576040517f08c379a000000000000000000000000000000000000000000000000000000000815260040161035190610d53565b60405180910390fd5b6000339080600181540180825580915050600190039060005260206000200160009091909190916101000a81548173ffffffffffffffffffffffffffffffffffffffff021916908373ffffffffffffffffffffffffffffffffffffffff16021790555034600160003373ffffffffffffffffffffffffffffffffffffffff1673ffffffffffffffffffffffffffffffffffffffff168152602001908152602001600020600082825461040c9190610da2565b92505081905550565b600081565b60016020528060005260406000206000915090505481565b7f000000000000000000000000000000000000000000000000000000000000000073ffffffffffffffffffffffffffffffffffffffff163373ffffffffffffffffffffffffffffffffffffffff16146104c0576040517f08c379a00000000000000000000000000000000000000000000000000000000081526004016104b790610e44565b60405180910390fd5b60005b60008054905081101561056b5760008082815481106104e5576104e4610e64565b5b9060005260206000200160009054906101000a900473ffffffffffffffffffffffffffffffffffffffff1690506000600160008373ffffffffffffffffffffffffffffffffffffffff1673ffffffffffffffffffffffffffffffffffffffff1681526020019081526020016000208190555050808061056390610e93565b9150506104c3565b50600067ffffffffffffffff81111561058757610586610edc565b5b6040519080825280602002602001820160405280156105b55781602001602082028036833780820191505090505b50600090805190602001906105cb929190610965565b5060003373ffffffffffffffffffffffffffffffffffffffff16476040516105f290610f3c565b60006040518083038185875af1925050503d806000811461062f576040519150601f19603f3d011682016040523d82523d6000602084013e610634565b606091505b5050905080610678576040517f08c379a000000000000000000000000000000000000000000000000000000000815260040161066f90610f9d565b60405180910390fd5b50565b6000808273ffffffffffffffffffffffffffffffffffffffff1663feaf968c6040518163ffffffff1660e01b815260040160a06040518083038186803b1580156106c457600080fd5b505afa1580156106d8573d6000803e3d6000fd5b505050506040513d601f19601f820116820180604052508101906106fc919061104a565b5050509150506402540be4008161071391906110c5565b915050919050565b7f000000000000000000000000000000000000000000000000000000000000000073ffffffffffffffffffffffffffffffffffffffff163373ffffffffffffffffffffffffffffffffffffffff16146107a9576040517f08c379a00000000000000000000000000000000000000000000000000000000081526004016107a090610e44565b60405180910390fd5b804710156107ec576040517f08c379a00000000000000000000000000000000000000000000000000000000081526004016107e39061124e565b60405180910390fd5b8173ffffffffffffffffffffffffffffffffffffffff166108fc829081150290604051600060405180830381858888f19350505050158015610832573d6000803e3d6000fd5b505050565b600260009054906101000a900473ffffffffffffffffffffffffffffffffffffffff1681565b60007f0000000000000000000000000000000000000000000000000000000000000000905090565b6000806108918361067b565b9050670de0b6b3a764000084826108a8919061126e565b6108b291906112f7565b91505092915050565b60008082815481106108d0576108cf610e64565b5b9060005260206000200160009054906101000a900473ffffffffffffffffffffffffffffffffffffffff169050919050565b7f000000000000000000000000000000000000000000000000000000000000000081565b6000818154811061093657600080fd5b906000526020600020016000915054906101000a900473ffffffffffffffffffffffffffffffffffffffff1681565b8280548282559060005260206000209081019282156109de579160200282015b828111156109dd5782518260006101000a81548173ffffffffffffffffffffffffffffffffffffffff021916908373ffffffffffffffffffffffffffffffffffffffff16021790555091602001919060010190610985565b5b5090506109eb91906109ef565b5090565b5b80821115610a085760008160009055506001016109f0565b5090565b6000819050919050565b610a1f81610a0c565b82525050565b6000602082019050610a3a6000830184610a16565b92915050565b600080fd5b600073ffffffffffffffffffffffffffffffffffffffff82169050919050565b6000610a7082610a45565b9050919050565b610a8081610a65565b8114610a8b57600080fd5b50565b600081359050610a9d81610a77565b92915050565b600060208284031215610ab957610ab8610a40565b5b6000610ac784828501610a8e565b91505092915050565b6000610adb82610a65565b9050919050565b610aeb81610ad0565b8114610af657600080fd5b50565b600081359050610b0881610ae2565b92915050565b600060208284031215610b2457610b23610a40565b5b6000610b3284828501610af9565b91505092915050565b6000610b4682610a45565b9050919050565b610b5681610b3b565b8114610b6157600080fd5b50565b600081359050610b7381610b4d565b92915050565b610b8281610a0c565b8114610b8d57600080fd5b50565b600081359050610b9f81610b79565b92915050565b60008060408385031215610bbc57610bbb610a40565b5b6000610bca85828601610b64565b9250506020610bdb85828601610b90565b9150509250929050565b6000819050919050565b6000610c0a610c05610c0084610a45565b610be5565b610a45565b9050919050565b6000610c1c82610bef565b9050919050565b6000610c2e82610c11565b9050919050565b610c3e81610c23565b82525050565b6000602082019050610c596000830184610c35565b92915050565b610c6881610a65565b82525050565b6000602082019050610c836000830184610c5f565b92915050565b60008060408385031215610ca057610c9f610a40565b5b6000610cae85828601610b90565b9250506020610cbf85828601610af9565b9150509250929050565b600060208284031215610cdf57610cde610a40565b5b6000610ced84828501610b90565b91505092915050565b600082825260208201905092915050565b7f4469646e27742073656e6420656e6f7567682000000000000000000000000000600082015250565b6000610d3d601383610cf6565b9150610d4882610d07565b602082019050919050565b60006020820190508181036000830152610d6c81610d30565b9050919050565b7f4e487b7100000000000000000000000000000000000000000000000000000000600052601160045260246000fd5b6000610dad82610a0c565b9150610db883610a0c565b9250827fffffffffffffffffffffffffffffffffffffffffffffffffffffffffffffffff03821115610ded57610dec610d73565b5b828201905092915050565b7f53656e646572206e6f74204f776e657200000000000000000000000000000000600082015250565b6000610e2e601083610cf6565b9150610e3982610df8565b602082019050919050565b60006020820190508181036000830152610e5d81610e21565b9050919050565b7f4e487b7100000000000000000000000000000000000000000000000000000000600052603260045260246000fd5b6000610e9e82610a0c565b91507fffffffffffffffffffffffffffffffffffffffffffffffffffffffffffffffff821415610ed157610ed0610d73565b5b600182019050919050565b7f4e487b7100000000000000000000000000000000000000000000000000000000600052604160045260246000fd5b600081905092915050565b50565b6000610f26600083610f0b565b9150610f3182610f16565b600082019050919050565b6000610f4782610f19565b9150819050919050565b7f63616c6c206661696c6564000000000000000000000000000000000000000000600082015250565b6000610f87600b83610cf6565b9150610f9282610f51565b602082019050919050565b60006020820190508181036000830152610fb681610f7a565b9050919050565b600069ffffffffffffffffffff82169050919050565b610fdc81610fbd565b8114610fe757600080fd5b50565b600081519050610ff981610fd3565b92915050565b6000819050919050565b61101281610fff565b811461101d57600080fd5b50565b60008151905061102f81611009565b92915050565b60008151905061104481610b79565b92915050565b600080600080600060a0868803121561106657611065610a40565b5b600061107488828901610fea565b955050602061108588828901611020565b945050604061109688828901611035565b93505060606110a788828901611035565b92505060806110b888828901610fea565b9150509295509295909350565b60006110d082610fff565b91506110db83610fff565b9250827f7fffffffffffffffffffffffffffffffffffffffffffffffffffffffffffffff048211600084136000841316161561111a57611119610d73565b5b817f8000000000000000000000000000000000000000000000000000000000000000058312600084126000841316161561115757611156610d73565b5b827f8000000000000000000000000000000000000000000000000000000000000000058212600084136000841216161561119457611193610d73565b5b827f7fffffffffffffffffffffffffffffffffffffffffffffffffffffffffffffff05821260008412600084121616156111d1576111d0610d73565b5b828202905092915050565b7f496e73756666696369656e742062616c616e636520696e2074686520636f6e7460008201527f7261637400000000000000000000000000000000000000000000000000000000602082015250565b6000611238602483610cf6565b9150611243826111dc565b604082019050919050565b600060208201905081810360008301526112678161122b565b9050919050565b600061127982610a0c565b915061128483610a0c565b9250817fffffffffffffffffffffffffffffffffffffffffffffffffffffffffffffffff04831182151516156112bd576112bc610d73565b5b828202905092915050565b7f4e487b7100000000000000000000000000000000000000000000000000000000600052601260045260246000fd5b600061130282610a0c565b915061130d83610a0c565b92508261131d5761131c6112c8565b5b82820490509291505056fea26469706673582212209f6a79acb934ed87ec6f5f4cbde621d1bc780772829568d5d51845d5a8cb912464736f6c63430008080033",
  "devdoc": {
    "kind": "dev",
    "methods": {},
    "version": 1
  },
  "userdoc": {
    "kind": "user",
    "methods": {},
    "version": 1
  },
  "storageLayout": {
    "storage": [
      {
        "astId": 54,
        "contract": "contracts/fundme.sol:FundMe",
        "label": "funders",
        "offset": 0,
        "slot": "0",
        "type": "t_array(t_address)dyn_storage"
      },
      {
        "astId": 58,
        "contract": "contracts/fundme.sol:FundMe",
        "label": "addressToAmount",
        "offset": 0,
        "slot": "1",
        "type": "t_mapping(t_address,t_uint256)"
      },
      {
        "astId": 63,
        "contract": "contracts/fundme.sol:FundMe",
        "label": "priceFeed",
        "offset": 0,
        "slot": "2",
        "type": "t_contract(AggregatorV3Interface)45"
      }
    ],
    "types": {
      "t_address": {
        "encoding": "inplace",
        "label": "address",
        "numberOfBytes": "20"
      },
      "t_array(t_address)dyn_storage": {
        "base": "t_address",
        "encoding": "dynamic_array",
        "label": "address[]",
        "numberOfBytes": "32"
      },
      "t_contract(AggregatorV3Interface)45": {
        "encoding": "inplace",
        "label": "contract AggregatorV3Interface",
        "numberOfBytes": "20"
      },
      "t_mapping(t_address,t_uint256)": {
        "encoding": "mapping",
        "key": "t_address",
        "label": "mapping(address => uint256)",
        "numberOfBytes": "32",
        "value": "t_uint256"
      },
      "t_uint256": {
        "encoding": "inplace",
        "label": "uint256",
        "numberOfBytes": "32"
      }
    }
  }
}