{
  "address": "0xB0cbDb9267FF8429aB122634B256A5566d76E855",
  "abi": [
    {
      "inputs": [
        {
          "internalType": "address",
          "name": "priceFeedAdress",
          "type": "address"
        }
      ],
      "stateMutability": "nonpayable",
      "type": "constructor"
    },
    {
      "stateMutability": "payable",
      "type": "fallback"
    },
    {
      "inputs": [],
      "name": "MIN_USD",
      "outputs": [
        {
          "internalType": "uint256",
          "name": "",
          "type": "uint256"
        }
      ],
      "stateMutability": "view",
      "type": "function"
    },
    {
      "inputs": [
        {
          "internalType": "address",
          "name": "",
          "type": "address"
        }
      ],
      "name": "addressToAmount",
      "outputs": [
        {
          "internalType": "uint256",
          "name": "",
          "type": "uint256"
        }
      ],
      "stateMutability": "view",
      "type": "function"
    },
    {
      "inputs": [],
      "name": "fund",
      "outputs": [],
      "stateMutability": "payable",
      "type": "function"
    },
    {
      "inputs": [
        {
          "internalType": "uint256",
          "name": "",
          "type": "uint256"
        }
      ],
      "name": "funders",
      "outputs": [
        {
          "internalType": "address",
          "name": "",
          "type": "address"
        }
      ],
      "stateMutability": "view",
      "type": "function"
    },
    {
      "inputs": [
        {
          "internalType": "uint256",
          "name": "eth_amount",
          "type": "uint256"
        },
        {
          "internalType": "contract AggregatorV3Interface",
          "name": "priceFeed",
          "type": "address"
        }
      ],
      "name": "getConversionRate",
      "outputs": [
        {
          "internalType": "uint256",
          "name": "",
          "type": "uint256"
        }
      ],
      "stateMutability": "view",
      "type": "function"
    },
    {
      "inputs": [
        {
          "internalType": "uint256",
          "name": "index",
          "type": "uint256"
        }
      ],
      "name": "getFunder",
      "outputs": [
        {
          "internalType": "address",
          "name": "",
          "type": "address"
        }
      ],
      "stateMutability": "view",
      "type": "function"
    },
    {
      "inputs": [],
      "name": "getOwner",
      "outputs": [
        {
          "internalType": "address",
          "name": "",
          "type": "address"
        }
      ],
      "stateMutability": "view",
      "type": "function"
    },
    {
      "inputs": [
        {
          "internalType": "contract AggregatorV3Interface",
          "name": "priceFeed",
          "type": "address"
        }
      ],
      "name": "getPrice",
      "outputs": [
        {
          "internalType": "uint256",
          "name": "",
          "type": "uint256"
        }
      ],
      "stateMutability": "view",
      "type": "function"
    },
    {
      "inputs": [],
      "name": "i_owner",
      "outputs": [
        {
          "internalType": "address",
          "name": "",
          "type": "address"
        }
      ],
      "stateMutability": "view",
      "type": "function"
    },
    {
      "inputs": [],
      "name": "priceFeed",
      "outputs": [
        {
          "internalType": "contract AggregatorV3Interface",
          "name": "",
          "type": "address"
        }
      ],
      "stateMutability": "view",
      "type": "function"
    },
    {
      "inputs": [],
      "name": "withdraw",
      "outputs": [],
      "stateMutability": "nonpayable",
      "type": "function"
    },
    {
      "stateMutability": "payable",
      "type": "receive"
    }
  ],
  "transactionHash": "0xe214a007438e5cde4fbdfc481633fe4bd99adfcc50360b08492847d0ec4ca433",
  "args": [
    "0x1b44F3514812d835EB1BDB0acB33d3fA3351Ee43"
  ],
  "numDeployments": 2,
  "solcInputHash": "cfa7d8f6896da9842be028ebd0c4d6a4",
  "bytecode": "0x60a06040523480156200001157600080fd5b506040516200128538038062001285833981810160405281019062000037919062000120565b3373ffffffffffffffffffffffffffffffffffffffff1660808173ffffffffffffffffffffffffffffffffffffffff1660601b8152505080600260006101000a81548173ffffffffffffffffffffffffffffffffffffffff021916908373ffffffffffffffffffffffffffffffffffffffff1602179055505062000152565b600080fd5b600073ffffffffffffffffffffffffffffffffffffffff82169050919050565b6000620000e882620000bb565b9050919050565b620000fa81620000db565b81146200010657600080fd5b50565b6000815190506200011a81620000ef565b92915050565b600060208284031215620001395762000138620000b6565b5b6000620001498482850162000109565b91505092915050565b60805160601c6111066200017f600039600081816104080152818161071901526107bc01526111066000f3fe6080604052600436106100a05760003560e01c8063893d20e811610064578063893d20e8146101a057806398e70cf9146101cb578063b60d428814610208578063d7b4750c14610212578063dba6335f1461024f578063dc0d3dff1461027a576100af565b8063213dbea2146100b95780633c7e7d28146100e45780633ccfd60b1461012157806341976e0914610138578063741bef1a14610175576100af565b366100af576100ad6102b7565b005b6100b76102b7565b005b3480156100c557600080fd5b506100ce6103e1565b6040516100db91906108dd565b60405180910390f35b3480156100f057600080fd5b5061010b6004803603810190610106919061095b565b6103ee565b60405161011891906108dd565b60405180910390f35b34801561012d57600080fd5b50610136610406565b005b34801561014457600080fd5b5061015f600480360381019061015a91906109c6565b61064f565b60405161016c91906108dd565b60405180910390f35b34801561018157600080fd5b5061018a6106ef565b6040516101979190610a52565b60405180910390f35b3480156101ac57600080fd5b506101b5610715565b6040516101c29190610a7c565b60405180910390f35b3480156101d757600080fd5b506101f260048036038101906101ed9190610ac3565b61073d565b6040516101ff91906108dd565b60405180910390f35b6102106102b7565b005b34801561021e57600080fd5b5061023960048036038101906102349190610b03565b610773565b6040516102469190610a7c565b60405180910390f35b34801561025b57600080fd5b506102646107ba565b6040516102719190610a7c565b60405180910390f35b34801561028657600080fd5b506102a1600480360381019061029c9190610b03565b6107de565b6040516102ae9190610a7c565b60405180910390f35b60326102e534600260009054906101000a900473ffffffffffffffffffffffffffffffffffffffff1661073d565b1015610326576040517f08c379a000000000000000000000000000000000000000000000000000000000815260040161031d90610b8d565b60405180910390fd5b6000339080600181540180825580915050600190039060005260206000200160009091909190916101000a81548173ffffffffffffffffffffffffffffffffffffffff021916908373ffffffffffffffffffffffffffffffffffffffff16021790555034600160003373ffffffffffffffffffffffffffffffffffffffff1673ffffffffffffffffffffffffffffffffffffffff16815260200190815260200160002060008282546103d89190610bdc565b92505081905550565b6802b5e3af16b188000081565b60016020528060005260406000206000915090505481565b7f000000000000000000000000000000000000000000000000000000000000000073ffffffffffffffffffffffffffffffffffffffff163373ffffffffffffffffffffffffffffffffffffffff1614610494576040517f08c379a000000000000000000000000000000000000000000000000000000000815260040161048b90610c7e565b60405180910390fd5b60005b60008054905081101561053f5760008082815481106104b9576104b8610c9e565b5b9060005260206000200160009054906101000a900473ffffffffffffffffffffffffffffffffffffffff1690506000600160008373ffffffffffffffffffffffffffffffffffffffff1673ffffffffffffffffffffffffffffffffffffffff1681526020019081526020016000208190555050808061053790610ccd565b915050610497565b50600067ffffffffffffffff81111561055b5761055a610d16565b5b6040519080825280602002602001820160405280156105895781602001602082028036833780820191505090505b506000908051906020019061059f92919061081d565b5060003373ffffffffffffffffffffffffffffffffffffffff16476040516105c690610d76565b60006040518083038185875af1925050503d8060008114610603576040519150601f19603f3d011682016040523d82523d6000602084013e610608565b606091505b505090508061064c576040517f08c379a000000000000000000000000000000000000000000000000000000000815260040161064390610dd7565b60405180910390fd5b50565b6000808273ffffffffffffffffffffffffffffffffffffffff1663feaf968c6040518163ffffffff1660e01b815260040160a06040518083038186803b15801561069857600080fd5b505afa1580156106ac573d6000803e3d6000fd5b505050506040513d601f19601f820116820180604052508101906106d09190610e84565b5050509150506402540be400816106e79190610eff565b915050919050565b600260009054906101000a900473ffffffffffffffffffffffffffffffffffffffff1681565b60007f0000000000000000000000000000000000000000000000000000000000000000905090565b6000806107498361064f565b9050670de0b6b3a764000084826107609190611016565b61076a919061109f565b91505092915050565b600080828154811061078857610787610c9e565b5b9060005260206000200160009054906101000a900473ffffffffffffffffffffffffffffffffffffffff169050919050565b7f000000000000000000000000000000000000000000000000000000000000000081565b600081815481106107ee57600080fd5b906000526020600020016000915054906101000a900473ffffffffffffffffffffffffffffffffffffffff1681565b828054828255906000526020600020908101928215610896579160200282015b828111156108955782518260006101000a81548173ffffffffffffffffffffffffffffffffffffffff021916908373ffffffffffffffffffffffffffffffffffffffff1602179055509160200191906001019061083d565b5b5090506108a391906108a7565b5090565b5b808211156108c05760008160009055506001016108a8565b5090565b6000819050919050565b6108d7816108c4565b82525050565b60006020820190506108f260008301846108ce565b92915050565b600080fd5b600073ffffffffffffffffffffffffffffffffffffffff82169050919050565b6000610928826108fd565b9050919050565b6109388161091d565b811461094357600080fd5b50565b6000813590506109558161092f565b92915050565b600060208284031215610971576109706108f8565b5b600061097f84828501610946565b91505092915050565b60006109938261091d565b9050919050565b6109a381610988565b81146109ae57600080fd5b50565b6000813590506109c08161099a565b92915050565b6000602082840312156109dc576109db6108f8565b5b60006109ea848285016109b1565b91505092915050565b6000819050919050565b6000610a18610a13610a0e846108fd565b6109f3565b6108fd565b9050919050565b6000610a2a826109fd565b9050919050565b6000610a3c82610a1f565b9050919050565b610a4c81610a31565b82525050565b6000602082019050610a676000830184610a43565b92915050565b610a768161091d565b82525050565b6000602082019050610a916000830184610a6d565b92915050565b610aa0816108c4565b8114610aab57600080fd5b50565b600081359050610abd81610a97565b92915050565b60008060408385031215610ada57610ad96108f8565b5b6000610ae885828601610aae565b9250506020610af9858286016109b1565b9150509250929050565b600060208284031215610b1957610b186108f8565b5b6000610b2784828501610aae565b91505092915050565b600082825260208201905092915050565b7f4469646e27742073656e6420656e6f7567682000000000000000000000000000600082015250565b6000610b77601383610b30565b9150610b8282610b41565b602082019050919050565b60006020820190508181036000830152610ba681610b6a565b9050919050565b7f4e487b7100000000000000000000000000000000000000000000000000000000600052601160045260246000fd5b6000610be7826108c4565b9150610bf2836108c4565b9250827fffffffffffffffffffffffffffffffffffffffffffffffffffffffffffffffff03821115610c2757610c26610bad565b5b828201905092915050565b7f53656e646572206e6f74204f776e657200000000000000000000000000000000600082015250565b6000610c68601083610b30565b9150610c7382610c32565b602082019050919050565b60006020820190508181036000830152610c9781610c5b565b9050919050565b7f4e487b7100000000000000000000000000000000000000000000000000000000600052603260045260246000fd5b6000610cd8826108c4565b91507fffffffffffffffffffffffffffffffffffffffffffffffffffffffffffffffff821415610d0b57610d0a610bad565b5b600182019050919050565b7f4e487b7100000000000000000000000000000000000000000000000000000000600052604160045260246000fd5b600081905092915050565b50565b6000610d60600083610d45565b9150610d6b82610d50565b600082019050919050565b6000610d8182610d53565b9150819050919050565b7f63616c6c206661696c6564000000000000000000000000000000000000000000600082015250565b6000610dc1600b83610b30565b9150610dcc82610d8b565b602082019050919050565b60006020820190508181036000830152610df081610db4565b9050919050565b600069ffffffffffffffffffff82169050919050565b610e1681610df7565b8114610e2157600080fd5b50565b600081519050610e3381610e0d565b92915050565b6000819050919050565b610e4c81610e39565b8114610e5757600080fd5b50565b600081519050610e6981610e43565b92915050565b600081519050610e7e81610a97565b92915050565b600080600080600060a08688031215610ea057610e9f6108f8565b5b6000610eae88828901610e24565b9550506020610ebf88828901610e5a565b9450506040610ed088828901610e6f565b9350506060610ee188828901610e6f565b9250506080610ef288828901610e24565b9150509295509295909350565b6000610f0a82610e39565b9150610f1583610e39565b9250827f7fffffffffffffffffffffffffffffffffffffffffffffffffffffffffffffff0482116000841360008413161615610f5457610f53610bad565b5b817f80000000000000000000000000000000000000000000000000000000000000000583126000841260008413161615610f9157610f90610bad565b5b827f80000000000000000000000000000000000000000000000000000000000000000582126000841360008412161615610fce57610fcd610bad565b5b827f7fffffffffffffffffffffffffffffffffffffffffffffffffffffffffffffff058212600084126000841216161561100b5761100a610bad565b5b828202905092915050565b6000611021826108c4565b915061102c836108c4565b9250817fffffffffffffffffffffffffffffffffffffffffffffffffffffffffffffffff048311821515161561106557611064610bad565b5b828202905092915050565b7f4e487b7100000000000000000000000000000000000000000000000000000000600052601260045260246000fd5b60006110aa826108c4565b91506110b5836108c4565b9250826110c5576110c4611070565b5b82820490509291505056fea264697066735822122017ae00b00f840627400277f408f151f5873b946057739ffe579da95c2942ee8c64736f6c63430008080033",
  "devdoc": {
    "kind": "dev",
    "methods": {},
    "version": 1
  },
  "userdoc": {
    "kind": "user",
    "methods": {},
    "version": 1
  },
  "storageLayout": {
    "storage": [
      {
        "astId": 56,
        "contract": "contracts/fundme.sol:FundMe",
        "label": "funders",
        "offset": 0,
        "slot": "0",
        "type": "t_array(t_address)dyn_storage"
      },
      {
        "astId": 60,
        "contract": "contracts/fundme.sol:FundMe",
        "label": "addressToAmount",
        "offset": 0,
        "slot": "1",
        "type": "t_mapping(t_address,t_uint256)"
      },
      {
        "astId": 65,
        "contract": "contracts/fundme.sol:FundMe",
        "label": "priceFeed",
        "offset": 0,
        "slot": "2",
        "type": "t_contract(AggregatorV3Interface)45"
      }
    ],
    "types": {
      "t_address": {
        "encoding": "inplace",
        "label": "address",
        "numberOfBytes": "20"
      },
      "t_array(t_address)dyn_storage": {
        "base": "t_address",
        "encoding": "dynamic_array",
        "label": "address[]",
        "numberOfBytes": "32"
      },
      "t_contract(AggregatorV3Interface)45": {
        "encoding": "inplace",
        "label": "contract AggregatorV3Interface",
        "numberOfBytes": "20"
      },
      "t_mapping(t_address,t_uint256)": {
        "encoding": "mapping",
        "key": "t_address",
        "label": "mapping(address => uint256)",
        "numberOfBytes": "32",
        "value": "t_uint256"
      },
      "t_uint256": {
        "encoding": "inplace",
        "label": "uint256",
        "numberOfBytes": "32"
      }
    }
  }
}