{
  "address": "0xe7f1725E7734CE288F8367e1Bb143E90bb3F0512",
  "abi": [
    {
      "inputs": [
        {
          "internalType": "address",
          "name": "priceFeedAdress",
          "type": "address"
        }
      ],
      "stateMutability": "nonpayable",
      "type": "constructor"
    },
    {
      "stateMutability": "payable",
      "type": "fallback"
    },
    {
      "inputs": [],
      "name": "MIN_USD",
      "outputs": [
        {
          "internalType": "uint256",
          "name": "",
          "type": "uint256"
        }
      ],
      "stateMutability": "view",
      "type": "function"
    },
    {
      "inputs": [
        {
          "internalType": "address",
          "name": "",
          "type": "address"
        }
      ],
      "name": "addressToAmount",
      "outputs": [
        {
          "internalType": "uint256",
          "name": "",
          "type": "uint256"
        }
      ],
      "stateMutability": "view",
      "type": "function"
    },
    {
      "inputs": [],
      "name": "fund",
      "outputs": [],
      "stateMutability": "payable",
      "type": "function"
    },
    {
      "inputs": [
        {
          "internalType": "uint256",
          "name": "",
          "type": "uint256"
        }
      ],
      "name": "funders",
      "outputs": [
        {
          "internalType": "address",
          "name": "",
          "type": "address"
        }
      ],
      "stateMutability": "view",
      "type": "function"
    },
    {
      "inputs": [
        {
          "internalType": "uint256",
          "name": "eth_amount",
          "type": "uint256"
        },
        {
          "internalType": "contract AggregatorV3Interface",
          "name": "priceFeed",
          "type": "address"
        }
      ],
      "name": "getConversionRate",
      "outputs": [
        {
          "internalType": "uint256",
          "name": "",
          "type": "uint256"
        }
      ],
      "stateMutability": "view",
      "type": "function"
    },
    {
      "inputs": [
        {
          "internalType": "uint256",
          "name": "index",
          "type": "uint256"
        }
      ],
      "name": "getFunder",
      "outputs": [
        {
          "internalType": "address",
          "name": "",
          "type": "address"
        }
      ],
      "stateMutability": "view",
      "type": "function"
    },
    {
      "inputs": [],
      "name": "getOwner",
      "outputs": [
        {
          "internalType": "address",
          "name": "",
          "type": "address"
        }
      ],
      "stateMutability": "view",
      "type": "function"
    },
    {
      "inputs": [
        {
          "internalType": "contract AggregatorV3Interface",
          "name": "priceFeed",
          "type": "address"
        }
      ],
      "name": "getPrice",
      "outputs": [
        {
          "internalType": "uint256",
          "name": "",
          "type": "uint256"
        }
      ],
      "stateMutability": "view",
      "type": "function"
    },
    {
      "inputs": [],
      "name": "i_owner",
      "outputs": [
        {
          "internalType": "address",
          "name": "",
          "type": "address"
        }
      ],
      "stateMutability": "view",
      "type": "function"
    },
    {
      "inputs": [],
      "name": "priceFeed",
      "outputs": [
        {
          "internalType": "contract AggregatorV3Interface",
          "name": "",
          "type": "address"
        }
      ],
      "stateMutability": "view",
      "type": "function"
    },
    {
      "inputs": [],
      "name": "withdraw",
      "outputs": [],
      "stateMutability": "nonpayable",
      "type": "function"
    },
    {
      "stateMutability": "payable",
      "type": "receive"
    }
  ],
  "transactionHash": "0xed7b984715b912747788e92c46d036cb6d61d8e4b613cea9f2e6eee6a31dfe94",
  "args": [
    "0x5FbDB2315678afecb367f032d93F642f64180aa3"
  ],
  "numDeployments": 1,
  "solcInputHash": "46da4d8a6bb0ea940d0cf9bfe75cd838",
  "bytecode": "0x60a06040523480156200001157600080fd5b506040516200127d3803806200127d833981810160405281019062000037919062000120565b3373ffffffffffffffffffffffffffffffffffffffff1660808173ffffffffffffffffffffffffffffffffffffffff1660601b8152505080600260006101000a81548173ffffffffffffffffffffffffffffffffffffffff021916908373ffffffffffffffffffffffffffffffffffffffff1602179055505062000152565b600080fd5b600073ffffffffffffffffffffffffffffffffffffffff82169050919050565b6000620000e882620000bb565b9050919050565b620000fa81620000db565b81146200010657600080fd5b50565b6000815190506200011a81620000ef565b92915050565b600060208284031215620001395762000138620000b6565b5b6000620001498482850162000109565b91505092915050565b60805160601c6110fe6200017f600039600081816104000152818161071101526107b401526110fe6000f3fe6080604052600436106100a05760003560e01c8063893d20e811610064578063893d20e8146101a057806398e70cf9146101cb578063b60d428814610208578063d7b4750c14610212578063dba6335f1461024f578063dc0d3dff1461027a576100af565b8063213dbea2146100b95780633c7e7d28146100e45780633ccfd60b1461012157806341976e0914610138578063741bef1a14610175576100af565b366100af576100ad6102b7565b005b6100b76102b7565b005b3480156100c557600080fd5b506100ce6103e1565b6040516100db91906108d5565b60405180910390f35b3480156100f057600080fd5b5061010b60048036038101906101069190610953565b6103e6565b60405161011891906108d5565b60405180910390f35b34801561012d57600080fd5b506101366103fe565b005b34801561014457600080fd5b5061015f600480360381019061015a91906109be565b610647565b60405161016c91906108d5565b60405180910390f35b34801561018157600080fd5b5061018a6106e7565b6040516101979190610a4a565b60405180910390f35b3480156101ac57600080fd5b506101b561070d565b6040516101c29190610a74565b60405180910390f35b3480156101d757600080fd5b506101f260048036038101906101ed9190610abb565b610735565b6040516101ff91906108d5565b60405180910390f35b6102106102b7565b005b34801561021e57600080fd5b5061023960048036038101906102349190610afb565b61076b565b6040516102469190610a74565b60405180910390f35b34801561025b57600080fd5b506102646107b2565b6040516102719190610a74565b60405180910390f35b34801561028657600080fd5b506102a1600480360381019061029c9190610afb565b6107d6565b6040516102ae9190610a74565b60405180910390f35b60006102e534600260009054906101000a900473ffffffffffffffffffffffffffffffffffffffff16610735565b1015610326576040517f08c379a000000000000000000000000000000000000000000000000000000000815260040161031d90610b85565b60405180910390fd5b6000339080600181540180825580915050600190039060005260206000200160009091909190916101000a81548173ffffffffffffffffffffffffffffffffffffffff021916908373ffffffffffffffffffffffffffffffffffffffff16021790555034600160003373ffffffffffffffffffffffffffffffffffffffff1673ffffffffffffffffffffffffffffffffffffffff16815260200190815260200160002060008282546103d89190610bd4565b92505081905550565b600081565b60016020528060005260406000206000915090505481565b7f000000000000000000000000000000000000000000000000000000000000000073ffffffffffffffffffffffffffffffffffffffff163373ffffffffffffffffffffffffffffffffffffffff161461048c576040517f08c379a000000000000000000000000000000000000000000000000000000000815260040161048390610c76565b60405180910390fd5b60005b6000805490508110156105375760008082815481106104b1576104b0610c96565b5b9060005260206000200160009054906101000a900473ffffffffffffffffffffffffffffffffffffffff1690506000600160008373ffffffffffffffffffffffffffffffffffffffff1673ffffffffffffffffffffffffffffffffffffffff1681526020019081526020016000208190555050808061052f90610cc5565b91505061048f565b50600067ffffffffffffffff81111561055357610552610d0e565b5b6040519080825280602002602001820160405280156105815781602001602082028036833780820191505090505b5060009080519060200190610597929190610815565b5060003373ffffffffffffffffffffffffffffffffffffffff16476040516105be90610d6e565b60006040518083038185875af1925050503d80600081146105fb576040519150601f19603f3d011682016040523d82523d6000602084013e610600565b606091505b5050905080610644576040517f08c379a000000000000000000000000000000000000000000000000000000000815260040161063b90610dcf565b60405180910390fd5b50565b6000808273ffffffffffffffffffffffffffffffffffffffff1663feaf968c6040518163ffffffff1660e01b815260040160a06040518083038186803b15801561069057600080fd5b505afa1580156106a4573d6000803e3d6000fd5b505050506040513d601f19601f820116820180604052508101906106c89190610e7c565b5050509150506402540be400816106df9190610ef7565b915050919050565b600260009054906101000a900473ffffffffffffffffffffffffffffffffffffffff1681565b60007f0000000000000000000000000000000000000000000000000000000000000000905090565b60008061074183610647565b9050670de0b6b3a76400008482610758919061100e565b6107629190611097565b91505092915050565b60008082815481106107805761077f610c96565b5b9060005260206000200160009054906101000a900473ffffffffffffffffffffffffffffffffffffffff169050919050565b7f000000000000000000000000000000000000000000000000000000000000000081565b600081815481106107e657600080fd5b906000526020600020016000915054906101000a900473ffffffffffffffffffffffffffffffffffffffff1681565b82805482825590600052602060002090810192821561088e579160200282015b8281111561088d5782518260006101000a81548173ffffffffffffffffffffffffffffffffffffffff021916908373ffffffffffffffffffffffffffffffffffffffff16021790555091602001919060010190610835565b5b50905061089b919061089f565b5090565b5b808211156108b85760008160009055506001016108a0565b5090565b6000819050919050565b6108cf816108bc565b82525050565b60006020820190506108ea60008301846108c6565b92915050565b600080fd5b600073ffffffffffffffffffffffffffffffffffffffff82169050919050565b6000610920826108f5565b9050919050565b61093081610915565b811461093b57600080fd5b50565b60008135905061094d81610927565b92915050565b600060208284031215610969576109686108f0565b5b60006109778482850161093e565b91505092915050565b600061098b82610915565b9050919050565b61099b81610980565b81146109a657600080fd5b50565b6000813590506109b881610992565b92915050565b6000602082840312156109d4576109d36108f0565b5b60006109e2848285016109a9565b91505092915050565b6000819050919050565b6000610a10610a0b610a06846108f5565b6109eb565b6108f5565b9050919050565b6000610a22826109f5565b9050919050565b6000610a3482610a17565b9050919050565b610a4481610a29565b82525050565b6000602082019050610a5f6000830184610a3b565b92915050565b610a6e81610915565b82525050565b6000602082019050610a896000830184610a65565b92915050565b610a98816108bc565b8114610aa357600080fd5b50565b600081359050610ab581610a8f565b92915050565b60008060408385031215610ad257610ad16108f0565b5b6000610ae085828601610aa6565b9250506020610af1858286016109a9565b9150509250929050565b600060208284031215610b1157610b106108f0565b5b6000610b1f84828501610aa6565b91505092915050565b600082825260208201905092915050565b7f4469646e27742073656e6420656e6f7567682000000000000000000000000000600082015250565b6000610b6f601383610b28565b9150610b7a82610b39565b602082019050919050565b60006020820190508181036000830152610b9e81610b62565b9050919050565b7f4e487b7100000000000000000000000000000000000000000000000000000000600052601160045260246000fd5b6000610bdf826108bc565b9150610bea836108bc565b9250827fffffffffffffffffffffffffffffffffffffffffffffffffffffffffffffffff03821115610c1f57610c1e610ba5565b5b828201905092915050565b7f53656e646572206e6f74204f776e657200000000000000000000000000000000600082015250565b6000610c60601083610b28565b9150610c6b82610c2a565b602082019050919050565b60006020820190508181036000830152610c8f81610c53565b9050919050565b7f4e487b7100000000000000000000000000000000000000000000000000000000600052603260045260246000fd5b6000610cd0826108bc565b91507fffffffffffffffffffffffffffffffffffffffffffffffffffffffffffffffff821415610d0357610d02610ba5565b5b600182019050919050565b7f4e487b7100000000000000000000000000000000000000000000000000000000600052604160045260246000fd5b600081905092915050565b50565b6000610d58600083610d3d565b9150610d6382610d48565b600082019050919050565b6000610d7982610d4b565b9150819050919050565b7f63616c6c206661696c6564000000000000000000000000000000000000000000600082015250565b6000610db9600b83610b28565b9150610dc482610d83565b602082019050919050565b60006020820190508181036000830152610de881610dac565b9050919050565b600069ffffffffffffffffffff82169050919050565b610e0e81610def565b8114610e1957600080fd5b50565b600081519050610e2b81610e05565b92915050565b6000819050919050565b610e4481610e31565b8114610e4f57600080fd5b50565b600081519050610e6181610e3b565b92915050565b600081519050610e7681610a8f565b92915050565b600080600080600060a08688031215610e9857610e976108f0565b5b6000610ea688828901610e1c565b9550506020610eb788828901610e52565b9450506040610ec888828901610e67565b9350506060610ed988828901610e67565b9250506080610eea88828901610e1c565b9150509295509295909350565b6000610f0282610e31565b9150610f0d83610e31565b9250827f7fffffffffffffffffffffffffffffffffffffffffffffffffffffffffffffff0482116000841360008413161615610f4c57610f4b610ba5565b5b817f80000000000000000000000000000000000000000000000000000000000000000583126000841260008413161615610f8957610f88610ba5565b5b827f80000000000000000000000000000000000000000000000000000000000000000582126000841360008412161615610fc657610fc5610ba5565b5b827f7fffffffffffffffffffffffffffffffffffffffffffffffffffffffffffffff058212600084126000841216161561100357611002610ba5565b5b828202905092915050565b6000611019826108bc565b9150611024836108bc565b9250817fffffffffffffffffffffffffffffffffffffffffffffffffffffffffffffffff048311821515161561105d5761105c610ba5565b5b828202905092915050565b7f4e487b7100000000000000000000000000000000000000000000000000000000600052601260045260246000fd5b60006110a2826108bc565b91506110ad836108bc565b9250826110bd576110bc611068565b5b82820490509291505056fea2646970667358221220241cc5ed91c0b56264bb060177fa1e89ed2f6ec9de8b55e28143de5ae9ef297164736f6c63430008080033",
  "devdoc": {
    "kind": "dev",
    "methods": {},
    "version": 1
  },
  "userdoc": {
    "kind": "user",
    "methods": {},
    "version": 1
  },
  "storageLayout": {
    "storage": [
      {
        "astId": 54,
        "contract": "contracts/fundme.sol:FundMe",
        "label": "funders",
        "offset": 0,
        "slot": "0",
        "type": "t_array(t_address)dyn_storage"
      },
      {
        "astId": 58,
        "contract": "contracts/fundme.sol:FundMe",
        "label": "addressToAmount",
        "offset": 0,
        "slot": "1",
        "type": "t_mapping(t_address,t_uint256)"
      },
      {
        "astId": 63,
        "contract": "contracts/fundme.sol:FundMe",
        "label": "priceFeed",
        "offset": 0,
        "slot": "2",
        "type": "t_contract(AggregatorV3Interface)45"
      }
    ],
    "types": {
      "t_address": {
        "encoding": "inplace",
        "label": "address",
        "numberOfBytes": "20"
      },
      "t_array(t_address)dyn_storage": {
        "base": "t_address",
        "encoding": "dynamic_array",
        "label": "address[]",
        "numberOfBytes": "32"
      },
      "t_contract(AggregatorV3Interface)45": {
        "encoding": "inplace",
        "label": "contract AggregatorV3Interface",
        "numberOfBytes": "20"
      },
      "t_mapping(t_address,t_uint256)": {
        "encoding": "mapping",
        "key": "t_address",
        "label": "mapping(address => uint256)",
        "numberOfBytes": "32",
        "value": "t_uint256"
      },
      "t_uint256": {
        "encoding": "inplace",
        "label": "uint256",
        "numberOfBytes": "32"
      }
    }
  }
}